:1000000000E00FBF0FEF04B90AB90E941C000E9464
:10001000360070E0872F869538F00E945D0073955A
:100020007830C1F70C9419000E9440007395783025
:1000300089F788EC0E9482005AE042E00E94A80002
:1000400043E00E94A80040E00E94A80040E00E9417
:10005000A80044E00E94A80048E00E94A80041E0F7
:100060000E94A80048E00E94A800089547E00E946E
:10007000A8004BE10E94A80048E00E94A800089553
:1000800056E062E00E947A0056E062E00E947A0048
:1000900052E066E00E947A0052E066E00E947A0038
:1000A00056E062E00E947A0056E062E00E947A0028
:1000B00056E06EE00E947A00089556E062E00E94E9
:1000C0007A0056E062E00E947A0056E066E00E9404
:1000D0007A0052E066E00E947A0056E062E00E94F8
:1000E0007A0056E062E00E947A0052E06EE00E94E0
:1000F0007A0008954FEF0E94A800562F40E00E941A
:10010000A800089553E041E00E94A80077E0440F62
:100110000E94A8007A957030D1F777E046950E944A
:10012000A8007A957030D1F78A95803079F70895D4
:100130001AEF20E83AE000001A951030E1F71AEFC4
:100140002A952030C1F720E83A953030A1F708957C
:1001500045B94BB9952F0E9498009A959030D9F7E0
:02016000089500
:00000001FF
